{
  "address": "0x0B31455F22b8aFF99edb96098ab622fd9C6d538B",
  "abi": [
    {
      "inputs": [],
      "stateMutability": "nonpayable",
      "type": "constructor"
    },
    {
      "anonymous": false,
      "inputs": [
        {
          "indexed": true,
          "internalType": "address",
          "name": "owner",
          "type": "address"
        },
        {
          "indexed": true,
          "internalType": "address",
          "name": "approved",
          "type": "address"
        },
        {
          "indexed": true,
          "internalType": "uint256",
          "name": "tokenId",
          "type": "uint256"
        }
      ],
      "name": "Approval",
      "type": "event"
    },
    {
      "anonymous": false,
      "inputs": [
        {
          "indexed": true,
          "internalType": "address",
          "name": "owner",
          "type": "address"
        },
        {
          "indexed": true,
          "internalType": "address",
          "name": "operator",
          "type": "address"
        },
        {
          "indexed": false,
          "internalType": "bool",
          "name": "approved",
          "type": "bool"
        }
      ],
      "name": "ApprovalForAll",
      "type": "event"
    },
    {
      "anonymous": false,
      "inputs": [
        {
          "indexed": false,
          "internalType": "uint256",
          "name": "tokenId",
          "type": "uint256"
        }
      ],
      "name": "MetadataLocked",
      "type": "event"
    },
    {
      "anonymous": false,
      "inputs": [
        {
          "indexed": false,
          "internalType": "uint256",
          "name": "tokenId",
          "type": "uint256"
        }
      ],
      "name": "MetadataUnlocked",
      "type": "event"
    },
    {
      "anonymous": false,
      "inputs": [
        {
          "indexed": true,
          "internalType": "address",
          "name": "previousOwner",
          "type": "address"
        },
        {
          "indexed": true,
          "internalType": "address",
          "name": "newOwner",
          "type": "address"
        }
      ],
      "name": "OwnershipTransferred",
      "type": "event"
    },
    {
      "anonymous": false,
      "inputs": [
        {
          "indexed": false,
          "internalType": "address",
          "name": "account",
          "type": "address"
        }
      ],
      "name": "Paused",
      "type": "event"
    },
    {
      "anonymous": false,
      "inputs": [
        {
          "indexed": false,
          "internalType": "uint256",
          "name": "tokenId",
          "type": "uint256"
        },
        {
          "indexed": false,
          "internalType": "address",
          "name": "to",
          "type": "address"
        }
      ],
      "name": "TokenMinted",
      "type": "event"
    },
    {
      "anonymous": false,
      "inputs": [
        {
          "indexed": false,
          "internalType": "uint256",
          "name": "tokenId",
          "type": "uint256"
        }
      ],
      "name": "TokenPaused",
      "type": "event"
    },
    {
      "anonymous": false,
      "inputs": [
        {
          "indexed": false,
          "internalType": "uint256",
          "name": "tokenId",
          "type": "uint256"
        }
      ],
      "name": "TokenUnpaused",
      "type": "event"
    },
    {
      "anonymous": false,
      "inputs": [
        {
          "indexed": true,
          "internalType": "address",
          "name": "from",
          "type": "address"
        },
        {
          "indexed": true,
          "internalType": "address",
          "name": "to",
          "type": "address"
        },
        {
          "indexed": true,
          "internalType": "uint256",
          "name": "tokenId",
          "type": "uint256"
        }
      ],
      "name": "Transfer",
      "type": "event"
    },
    {
      "anonymous": false,
      "inputs": [
        {
          "indexed": false,
          "internalType": "address",
          "name": "account",
          "type": "address"
        }
      ],
      "name": "Unpaused",
      "type": "event"
    },
    {
      "inputs": [
        {
          "internalType": "address",
          "name": "to",
          "type": "address"
        },
        {
          "internalType": "uint256",
          "name": "tokenId",
          "type": "uint256"
        }
      ],
      "name": "approve",
      "outputs": [],
      "stateMutability": "nonpayable",
      "type": "function"
    },
    {
      "inputs": [
        {
          "internalType": "address",
          "name": "owner",
          "type": "address"
        }
      ],
      "name": "balanceOf",
      "outputs": [
        {
          "internalType": "uint256",
          "name": "",
          "type": "uint256"
        }
      ],
      "stateMutability": "view",
      "type": "function"
    },
    {
      "inputs": [
        {
          "internalType": "uint256",
          "name": "tokenId",
          "type": "uint256"
        }
      ],
      "name": "getApproved",
      "outputs": [
        {
          "internalType": "address",
          "name": "",
          "type": "address"
        }
      ],
      "stateMutability": "view",
      "type": "function"
    },
    {
      "inputs": [
        {
          "internalType": "address",
          "name": "owner",
          "type": "address"
        },
        {
          "internalType": "address",
          "name": "operator",
          "type": "address"
        }
      ],
      "name": "isApprovedForAll",
      "outputs": [
        {
          "internalType": "bool",
          "name": "",
          "type": "bool"
        }
      ],
      "stateMutability": "view",
      "type": "function"
    },
    {
      "inputs": [
        {
          "internalType": "uint256",
          "name": "tokenId",
          "type": "uint256"
        }
      ],
      "name": "lock",
      "outputs": [],
      "stateMutability": "nonpayable",
      "type": "function"
    },
    {
      "inputs": [
        {
          "internalType": "address",
          "name": "to",
          "type": "address"
        },
        {
          "internalType": "string",
          "name": "tokenURI",
          "type": "string"
        }
      ],
      "name": "mint",
      "outputs": [],
      "stateMutability": "nonpayable",
      "type": "function"
    },
    {
      "inputs": [],
      "name": "name",
      "outputs": [
        {
          "internalType": "string",
          "name": "",
          "type": "string"
        }
      ],
      "stateMutability": "view",
      "type": "function"
    },
    {
      "inputs": [
        {
          "internalType": "uint256",
          "name": "",
          "type": "uint256"
        }
      ],
      "name": "nftData",
      "outputs": [
        {
          "internalType": "string",
          "name": "status",
          "type": "string"
        },
        {
          "internalType": "bool",
          "name": "locked",
          "type": "bool"
        }
      ],
      "stateMutability": "view",
      "type": "function"
    },
    {
      "inputs": [],
      "name": "onlyOwnerCanMint",
      "outputs": [
        {
          "internalType": "bool",
          "name": "",
          "type": "bool"
        }
      ],
      "stateMutability": "view",
      "type": "function"
    },
    {
      "inputs": [],
      "name": "owner",
      "outputs": [
        {
          "internalType": "address",
          "name": "",
          "type": "address"
        }
      ],
      "stateMutability": "view",
      "type": "function"
    },
    {
      "inputs": [
        {
          "internalType": "uint256",
          "name": "tokenId",
          "type": "uint256"
        }
      ],
      "name": "ownerOf",
      "outputs": [
        {
          "internalType": "address",
          "name": "",
          "type": "address"
        }
      ],
      "stateMutability": "view",
      "type": "function"
    },
    {
      "inputs": [],
      "name": "pause",
      "outputs": [],
      "stateMutability": "nonpayable",
      "type": "function"
    },
    {
      "inputs": [
        {
          "internalType": "uint256",
          "name": "tokenId",
          "type": "uint256"
        }
      ],
      "name": "pauseToken",
      "outputs": [],
      "stateMutability": "nonpayable",
      "type": "function"
    },
    {
      "inputs": [],
      "name": "paused",
      "outputs": [
        {
          "internalType": "bool",
          "name": "",
          "type": "bool"
        }
      ],
      "stateMutability": "view",
      "type": "function"
    },
    {
      "inputs": [
        {
          "internalType": "uint256",
          "name": "",
          "type": "uint256"
        }
      ],
      "name": "pausedTokens",
      "outputs": [
        {
          "internalType": "bool",
          "name": "",
          "type": "bool"
        }
      ],
      "stateMutability": "view",
      "type": "function"
    },
    {
      "inputs": [],
      "name": "renounceOwnership",
      "outputs": [],
      "stateMutability": "nonpayable",
      "type": "function"
    },
    {
      "inputs": [
        {
          "internalType": "address",
          "name": "from",
          "type": "address"
        },
        {
          "internalType": "address",
          "name": "to",
          "type": "address"
        },
        {
          "internalType": "uint256",
          "name": "tokenId",
          "type": "uint256"
        }
      ],
      "name": "safeTransferFrom",
      "outputs": [],
      "stateMutability": "nonpayable",
      "type": "function"
    },
    {
      "inputs": [
        {
          "internalType": "address",
          "name": "from",
          "type": "address"
        },
        {
          "internalType": "address",
          "name": "to",
          "type": "address"
        },
        {
          "internalType": "uint256",
          "name": "tokenId",
          "type": "uint256"
        },
        {
          "internalType": "bytes",
          "name": "data",
          "type": "bytes"
        }
      ],
      "name": "safeTransferFrom",
      "outputs": [],
      "stateMutability": "nonpayable",
      "type": "function"
    },
    {
      "inputs": [
        {
          "internalType": "address",
          "name": "operator",
          "type": "address"
        },
        {
          "internalType": "bool",
          "name": "approved",
          "type": "bool"
        }
      ],
      "name": "setApprovalForAll",
      "outputs": [],
      "stateMutability": "nonpayable",
      "type": "function"
    },
    {
      "inputs": [
        {
          "internalType": "bool",
          "name": "_onlyOwnerCanMint",
          "type": "bool"
        }
      ],
      "name": "setOnlyOwnerCanMint",
      "outputs": [],
      "stateMutability": "nonpayable",
      "type": "function"
    },
    {
      "inputs": [
        {
          "internalType": "bytes4",
          "name": "interfaceId",
          "type": "bytes4"
        }
      ],
      "name": "supportsInterface",
      "outputs": [
        {
          "internalType": "bool",
          "name": "",
          "type": "bool"
        }
      ],
      "stateMutability": "view",
      "type": "function"
    },
    {
      "inputs": [],
      "name": "symbol",
      "outputs": [
        {
          "internalType": "string",
          "name": "",
          "type": "string"
        }
      ],
      "stateMutability": "view",
      "type": "function"
    },
    {
      "inputs": [
        {
          "internalType": "uint256",
          "name": "tokenId",
          "type": "uint256"
        }
      ],
      "name": "tokenURI",
      "outputs": [
        {
          "internalType": "string",
          "name": "",
          "type": "string"
        }
      ],
      "stateMutability": "view",
      "type": "function"
    },
    {
      "inputs": [
        {
          "internalType": "address",
          "name": "",
          "type": "address"
        },
        {
          "internalType": "uint256",
          "name": "",
          "type": "uint256"
        }
      ],
      "name": "tokensByAddress",
      "outputs": [
        {
          "internalType": "uint256",
          "name": "",
          "type": "uint256"
        }
      ],
      "stateMutability": "view",
      "type": "function"
    },
    {
      "inputs": [
        {
          "internalType": "address",
          "name": "from",
          "type": "address"
        },
        {
          "internalType": "address",
          "name": "to",
          "type": "address"
        },
        {
          "internalType": "uint256",
          "name": "tokenId",
          "type": "uint256"
        }
      ],
      "name": "transferFrom",
      "outputs": [],
      "stateMutability": "nonpayable",
      "type": "function"
    },
    {
      "inputs": [
        {
          "internalType": "address",
          "name": "newOwner",
          "type": "address"
        }
      ],
      "name": "transferOwnership",
      "outputs": [],
      "stateMutability": "nonpayable",
      "type": "function"
    },
    {
      "inputs": [
        {
          "internalType": "uint256",
          "name": "tokenId",
          "type": "uint256"
        }
      ],
      "name": "unlock",
      "outputs": [],
      "stateMutability": "nonpayable",
      "type": "function"
    },
    {
      "inputs": [],
      "name": "unpause",
      "outputs": [],
      "stateMutability": "nonpayable",
      "type": "function"
    },
    {
      "inputs": [
        {
          "internalType": "uint256",
          "name": "tokenId",
          "type": "uint256"
        }
      ],
      "name": "unpauseToken",
      "outputs": [],
      "stateMutability": "nonpayable",
      "type": "function"
    },
    {
      "inputs": [
        {
          "internalType": "uint256",
          "name": "tokenId",
          "type": "uint256"
        },
        {
          "internalType": "string",
          "name": "status",
          "type": "string"
        },
        {
          "internalType": "string",
          "name": "tokenURI",
          "type": "string"
        }
      ],
      "name": "updateNFT",
      "outputs": [],
      "stateMutability": "nonpayable",
      "type": "function"
    }
  ],
  "transactionHash": "0xf4fd6c7fb35052fce1982ba0a633ba1e240feb2ffa80dc5e83c9d271136e3fcd",
  "args": [],
  "numDeployments": 2,
  "solcInputHash": "5c97beb756739e162ff624e4e21aaa91",
  "bytecode": "0x6080604052600c805460ff191660011790553480156200001e57600080fd5b5060408051808201825260208082527f4e696e6a6120417661746172204d696e74657220457874726f64696e6169726581830152825180840190935260048352634e414d4560e01b90830152906000620000798382620001b3565b506001620000888282620001b3565b505050620000a56200009f620000b860201b60201c565b620000bc565b6007805460ff60a01b191690556200027f565b3390565b600780546001600160a01b038381166001600160a01b0319831681179093556040519116919082907f8be0079c531659141344cd1fd0a4f28419497f9722a3daafe3b4186f6b6457e090600090a35050565b634e487b7160e01b600052604160045260246000fd5b600181811c908216806200013957607f821691505b6020821081036200015a57634e487b7160e01b600052602260045260246000fd5b50919050565b601f821115620001ae57600081815260208120601f850160051c81016020861015620001895750805b601f850160051c820191505b81811015620001aa5782815560010162000195565b5050505b505050565b81516001600160401b03811115620001cf57620001cf6200010e565b620001e781620001e0845462000124565b8462000160565b602080601f8311600181146200021f5760008415620002065750858301515b600019600386901b1c1916600185901b178555620001aa565b600085815260208120601f198616915b8281101562000250578886015182559484019460019091019084016200022f565b50858210156200026f5787850151600019600388901b60f8161c191681555b5050505050600190811b01905550565b6122f5806200028f6000396000f3fe608060405234801561001057600080fd5b50600436106101da5760003560e01c80638456cb5911610104578063ba27d56f116100a2578063e985e9c511610071578063e985e9c5146103f5578063f2fde38b14610408578063fbd395f81461041b578063fda361641461042e57600080fd5b8063ba27d56f146103a9578063c87b56dd146103bc578063d0def521146103cf578063dd467064146103e257600080fd5b80638da5cb5b116100de5780638da5cb5b1461036a57806395d89b411461037b578063a22cb46514610383578063b88d4fde1461039657600080fd5b80638456cb591461033457806385d098dc1461033c5780638c2109751461034957600080fd5b806342842e0e1161017c5780636352211e1161014b5780636352211e146102e557806370a08231146102f8578063715018a614610319578063776ab6341461032157600080fd5b806342842e0e1461029a5780635bb94589146102ad5780635c975abb146102c05780636198e339146102d257600080fd5b8063095ea7b3116101b8578063095ea7b31461024757806323b872dd1461025c578063393a574c1461026f5780633f4ba83a1461029257600080fd5b806301ffc9a7146101df57806306fdde0314610207578063081812fc1461021c575b600080fd5b6101f26101ed366004611b67565b610441565b60405190151581526020015b60405180910390f35b61020f610493565b6040516101fe9190611bd4565b61022f61022a366004611be7565b610525565b6040516001600160a01b0390911681526020016101fe565b61025a610255366004611c1c565b61054c565b005b61025a61026a366004611c46565b610666565b6101f261027d366004611be7565b600a6020526000908152604090205460ff1681565b61025a610697565b61025a6102a8366004611c46565b6106a9565b61025a6102bb366004611c92565b6106c4565b600754600160a01b900460ff166101f2565b61025a6102e0366004611be7565b6106df565b61022f6102f3366004611be7565b610762565b61030b610306366004611cad565b6107c2565b6040519081526020016101fe565b61025a610848565b61025a61032f366004611be7565b61085a565b61025a6108cf565b600c546101f29060ff1681565b61035c610357366004611be7565b6108df565b6040516101fe929190611cc8565b6007546001600160a01b031661022f565b61020f610986565b61025a610391366004611cec565b610995565b61025a6103a4366004611dab565b6109a4565b61030b6103b7366004611c1c565b6109dc565b61020f6103ca366004611be7565b610a0d565b61025a6103dd366004611e47565b610b1d565b61025a6103f0366004611be7565b610c8f565b6101f2610403366004611e95565b610d52565b61025a610416366004611cad565b610d80565b61025a610429366004611be7565b610df9565b61025a61043c366004611ebf565b610e71565b60006001600160e01b031982166380ac58cd60e01b148061047257506001600160e01b03198216635b5e139f60e01b145b8061048d57506301ffc9a760e01b6001600160e01b03198316145b92915050565b6060600080546104a290611f2c565b80601f01602080910402602001604051908101604052809291908181526020018280546104ce90611f2c565b801561051b5780601f106104f05761010080835404028352916020019161051b565b820191906000526020600020905b8154815290600101906020018083116104fe57829003601f168201915b5050505050905090565b600061053082610f6d565b506000908152600460205260409020546001600160a01b031690565b600061055782610762565b9050806001600160a01b0316836001600160a01b0316036105c95760405162461bcd60e51b815260206004820152602160248201527f4552433732313a20617070726f76616c20746f2063757272656e74206f776e656044820152603960f91b60648201526084015b60405180910390fd5b336001600160a01b03821614806105e557506105e58133610d52565b6106575760405162461bcd60e51b815260206004820152603d60248201527f4552433732313a20617070726f76652063616c6c6572206973206e6f7420746f60448201527f6b656e206f776e6572206f7220617070726f76656420666f7220616c6c00000060648201526084016105c0565b6106618383610fbd565b505050565b610670338261102b565b61068c5760405162461bcd60e51b81526004016105c090611f66565b610661838383611089565b61069f6111fa565b6106a7611254565b565b610661838383604051806020016040528060008152506109a4565b6106cc6111fa565b600c805460ff1916911515919091179055565b6106e76111fa565b6106f0816112a9565b61070c5760405162461bcd60e51b81526004016105c090611fb3565b60008181526009602052604090819020600101805460ff19169055517f15231ceabda9f4f9436b8f17a28b36c21c8e434c821082aa1cfb3fcc994fe6c0906107579083815260200190565b60405180910390a150565b6000818152600260205260408120546001600160a01b03168061048d5760405162461bcd60e51b8152602060048201526018602482015277115490cdcc8c4e881a5b9d985b1a59081d1bdad95b88125160421b60448201526064016105c0565b60006001600160a01b03821661082c5760405162461bcd60e51b815260206004820152602960248201527f4552433732313a2061646472657373207a65726f206973206e6f7420612076616044820152683634b21037bbb732b960b91b60648201526084016105c0565b506001600160a01b031660009081526003602052604090205490565b6108506111fa565b6106a760006112c6565b6108626111fa565b61086b816112a9565b6108875760405162461bcd60e51b81526004016105c090611fb3565b6000818152600a602052604090819020805460ff19169055517f0cfa9cc56bacd896c88effb6a4051b954fcaaf2de7ae98882e39f294ea651843906107579083815260200190565b6108d76111fa565b6106a7611318565b6009602052600090815260409020805481906108fa90611f2c565b80601f016020809104026020016040519081016040528092919081815260200182805461092690611f2c565b80156109735780601f1061094857610100808354040283529160200191610973565b820191906000526020600020905b81548152906001019060200180831161095657829003601f168201915b5050506001909301549192505060ff1682565b6060600180546104a290611f2c565b6109a033838361135b565b5050565b6109ae338361102b565b6109ca5760405162461bcd60e51b81526004016105c090611f66565b6109d684848484611429565b50505050565b600b60205281600052604060002081815481106109f857600080fd5b90600052602060002001600091509150505481565b6060610a1882610f6d565b60008281526006602052604081208054610a3190611f2c565b80601f0160208091040260200160405190810160405280929190818152602001828054610a5d90611f2c565b8015610aaa5780601f10610a7f57610100808354040283529160200191610aaa565b820191906000526020600020905b815481529060010190602001808311610a8d57829003601f168201915b505050505090506000610ac860408051602081019091526000815290565b90508051600003610ada575092915050565b815115610b0c578082604051602001610af4929190611fdf565b60405160208183030381529060405292505050919050565b610b158461145c565b949350505050565b600c5460ff161580610b3957506007546001600160a01b031633145b610b905760405162461bcd60e51b815260206004820152602260248201527f4d696e74696e67206973207265737472696374656420746f20746865206f776e60448201526132b960f11b60648201526084016105c0565b6000610b9b60085490565b9050610bab600880546001019055565b610bb583826114d0565b610bbf81836114ea565b6001600160a01b0383166000908152600b60209081526040808320805460018101825590845282842001849055805160808101825260068183019081526561637469766560d01b60608301528152808301849052848452600990925290912081518190610c2c908261205c565b506020918201516001909101805460ff1916911515919091179055604080518381526001600160a01b038616928101929092527f3a5398bda6f1f57d6c96834fa9bf02b5517bdc847d14312015a917ba421c31c9910160405180910390a1505050565b610c98816112a9565b610cb45760405162461bcd60e51b81526004016105c090611fb3565b6007546001600160a01b0316331480610ce65750610cd181610762565b6001600160a01b0316336001600160a01b0316145b610d025760405162461bcd60e51b81526004016105c09061211c565b600081815260096020526040908190206001908101805460ff19169091179055517f0b102582412c868866f81f4a2d5f0632027804dda110c66f39e5a9b83340c95d906107579083815260200190565b6001600160a01b03918216600090815260056020908152604080832093909416825291909152205460ff1690565b610d886111fa565b6001600160a01b038116610ded5760405162461bcd60e51b815260206004820152602660248201527f4f776e61626c653a206e6577206f776e657220697320746865207a65726f206160448201526564647265737360d01b60648201526084016105c0565b610df6816112c6565b50565b610e016111fa565b610e0a816112a9565b610e265760405162461bcd60e51b81526004016105c090611fb3565b6000818152600a602052604090819020805460ff19166001179055517fc2d830ac158eec7b589dfadf012044c95b8646222991556ab4cd311e38bc77d1906107579083815260200190565b610e7a836112a9565b610e965760405162461bcd60e51b81526004016105c090611fb3565b6007546001600160a01b0316331480610ec85750610eb383610762565b6001600160a01b0316336001600160a01b0316145b610ee45760405162461bcd60e51b81526004016105c09061211c565b60008381526009602052604090206001015460ff1615610f3b5760405162461bcd60e51b815260206004820152601260248201527113595d1859185d18481a5cc81b1bd8dad95960721b60448201526064016105c0565b815115610f5c576000838152600960205260409020610f5a838261205c565b505b8051156106615761066183826114ea565b610f76816112a9565b610df65760405162461bcd60e51b8152602060048201526018602482015277115490cdcc8c4e881a5b9d985b1a59081d1bdad95b88125160421b60448201526064016105c0565b600081815260046020526040902080546001600160a01b0319166001600160a01b0384169081179091558190610ff282610762565b6001600160a01b03167f8c5be1e5ebec7d5bd14f71427d1e84f3dd0314c0f7b2291e5b200ac8c7c3b92560405160405180910390a45050565b60008061103783610762565b9050806001600160a01b0316846001600160a01b0316148061105e575061105e8185610d52565b80610b155750836001600160a01b031661107784610525565b6001600160a01b031614949350505050565b826001600160a01b031661109c82610762565b6001600160a01b0316146110c25760405162461bcd60e51b81526004016105c090612160565b6001600160a01b0382166111245760405162461bcd60e51b8152602060048201526024808201527f4552433732313a207472616e7366657220746f20746865207a65726f206164646044820152637265737360e01b60648201526084016105c0565b611131838383600161156e565b826001600160a01b031661114482610762565b6001600160a01b03161461116a5760405162461bcd60e51b81526004016105c090612160565b600081815260046020908152604080832080546001600160a01b03199081169091556001600160a01b0387811680865260038552838620805460001901905590871680865283862080546001019055868652600290945282852080549092168417909155905184937fddf252ad1be2c89b69c2b068fc378daa952ba7f163c4a11628f55a4df523b3ef91a4505050565b6007546001600160a01b031633146106a75760405162461bcd60e51b815260206004820181905260248201527f4f776e61626c653a2063616c6c6572206973206e6f7420746865206f776e657260448201526064016105c0565b61125c61169a565b6007805460ff60a01b191690557f5db9ee0a495bf2e6ff9c91a7834c1ba4fdd244a5e8aa4e537bd38aeae4b073aa335b6040516001600160a01b03909116815260200160405180910390a1565b6000908152600260205260409020546001600160a01b0316151590565b600780546001600160a01b038381166001600160a01b0319831681179093556040519116919082907f8be0079c531659141344cd1fd0a4f28419497f9722a3daafe3b4186f6b6457e090600090a35050565b6113206116ea565b6007805460ff60a01b1916600160a01b1790557f62e78cea01bee320cd4e420270b5ea74000d11b0c9f74754ebdbfc544b05a25861128c3390565b816001600160a01b0316836001600160a01b0316036113bc5760405162461bcd60e51b815260206004820152601960248201527f4552433732313a20617070726f766520746f2063616c6c65720000000000000060448201526064016105c0565b6001600160a01b03838116600081815260056020908152604080832094871680845294825291829020805460ff191686151590811790915591519182527f17307eab39ab6107e8899845ad3d59bd9653f200f220920489ca2b5937696c31910160405180910390a3505050565b611434848484611089565b61144084848484611737565b6109d65760405162461bcd60e51b81526004016105c0906121a5565b606061146782610f6d565b600061147e60408051602081019091526000815290565b9050600081511161149e57604051806020016040528060008152506114c9565b806114a884611838565b6040516020016114b9929190611fdf565b6040516020818303038152906040525b9392505050565b6109a08282604051806020016040528060008152506118cb565b6114f3826112a9565b6115565760405162461bcd60e51b815260206004820152602e60248201527f45524337323155524953746f726167653a2055524920736574206f66206e6f6e60448201526d32bc34b9ba32b73a103a37b5b2b760911b60648201526084016105c0565b6000828152600660205260409020610661828261205c565b6115766116ea565b6001600160a01b0384161561165a576001600160a01b0384166000908152600b60205260408120815b81548110156115e557848282815481106115bb576115bb6121f7565b9060005260206000200154036115d3578092506115e5565b806115dd81612223565b91505061159f565b50805481906115f69060019061223c565b81548110611606576116066121f7565b9060005260206000200154818381548110611623576116236121f7565b9060005260206000200181905550808054806116415761164161224f565b6001900381819060005260206000200160009055905550505b6001600160a01b03831615611695576001600160a01b0383166000908152600b60209081526040822080546001810182559083529120018290555b6109d6565b600754600160a01b900460ff166106a75760405162461bcd60e51b815260206004820152601460248201527314185d5cd8589b194e881b9bdd081c185d5cd95960621b60448201526064016105c0565b600754600160a01b900460ff16156106a75760405162461bcd60e51b815260206004820152601060248201526f14185d5cd8589b194e881c185d5cd95960821b60448201526064016105c0565b60006001600160a01b0384163b1561182d57604051630a85bd0160e11b81526001600160a01b0385169063150b7a029061177b903390899088908890600401612265565b6020604051808303816000875af19250505080156117b6575060408051601f3d908101601f191682019092526117b3918101906122a2565b60015b611813573d8080156117e4576040519150601f19603f3d011682016040523d82523d6000602084013e6117e9565b606091505b50805160000361180b5760405162461bcd60e51b81526004016105c0906121a5565b805181602001fd5b6001600160e01b031916630a85bd0160e11b149050610b15565b506001949350505050565b60606000611845836118fe565b600101905060008167ffffffffffffffff81111561186557611865611d1f565b6040519080825280601f01601f19166020018201604052801561188f576020820181803683370190505b5090508181016020015b600019016f181899199a1a9b1b9c1cb0b131b232b360811b600a86061a8153600a850494508461189957509392505050565b6118d583836119d6565b6118e26000848484611737565b6106615760405162461bcd60e51b81526004016105c0906121a5565b60008072184f03e93ff9f4daa797ed6e38ed64bf6a1f0160401b831061193d5772184f03e93ff9f4daa797ed6e38ed64bf6a1f0160401b830492506040015b6d04ee2d6d415b85acef81000000008310611969576d04ee2d6d415b85acef8100000000830492506020015b662386f26fc10000831061198757662386f26fc10000830492506010015b6305f5e100831061199f576305f5e100830492506008015b61271083106119b357612710830492506004015b606483106119c5576064830492506002015b600a831061048d5760010192915050565b6001600160a01b038216611a2c5760405162461bcd60e51b815260206004820181905260248201527f4552433732313a206d696e7420746f20746865207a65726f206164647265737360448201526064016105c0565b611a35816112a9565b15611a825760405162461bcd60e51b815260206004820152601c60248201527f4552433732313a20746f6b656e20616c7265616479206d696e7465640000000060448201526064016105c0565b611a9060008383600161156e565b611a99816112a9565b15611ae65760405162461bcd60e51b815260206004820152601c60248201527f4552433732313a20746f6b656e20616c7265616479206d696e7465640000000060448201526064016105c0565b6001600160a01b038216600081815260036020908152604080832080546001019055848352600290915280822080546001600160a01b0319168417905551839291907fddf252ad1be2c89b69c2b068fc378daa952ba7f163c4a11628f55a4df523b3ef908290a45050565b6001600160e01b031981168114610df657600080fd5b600060208284031215611b7957600080fd5b81356114c981611b51565b60005b83811015611b9f578181015183820152602001611b87565b50506000910152565b60008151808452611bc0816020860160208601611b84565b601f01601f19169290920160200192915050565b6020815260006114c96020830184611ba8565b600060208284031215611bf957600080fd5b5035919050565b80356001600160a01b0381168114611c1757600080fd5b919050565b60008060408385031215611c2f57600080fd5b611c3883611c00565b946020939093013593505050565b600080600060608486031215611c5b57600080fd5b611c6484611c00565b9250611c7260208501611c00565b9150604084013590509250925092565b80358015158114611c1757600080fd5b600060208284031215611ca457600080fd5b6114c982611c82565b600060208284031215611cbf57600080fd5b6114c982611c00565b604081526000611cdb6040830185611ba8565b905082151560208301529392505050565b60008060408385031215611cff57600080fd5b611d0883611c00565b9150611d1660208401611c82565b90509250929050565b634e487b7160e01b600052604160045260246000fd5b600067ffffffffffffffff80841115611d5057611d50611d1f565b604051601f8501601f19908116603f01168101908282118183101715611d7857611d78611d1f565b81604052809350858152868686011115611d9157600080fd5b858560208301376000602087830101525050509392505050565b60008060008060808587031215611dc157600080fd5b611dca85611c00565b9350611dd860208601611c00565b925060408501359150606085013567ffffffffffffffff811115611dfb57600080fd5b8501601f81018713611e0c57600080fd5b611e1b87823560208401611d35565b91505092959194509250565b600082601f830112611e3857600080fd5b6114c983833560208501611d35565b60008060408385031215611e5a57600080fd5b611e6383611c00565b9150602083013567ffffffffffffffff811115611e7f57600080fd5b611e8b85828601611e27565b9150509250929050565b60008060408385031215611ea857600080fd5b611eb183611c00565b9150611d1660208401611c00565b600080600060608486031215611ed457600080fd5b83359250602084013567ffffffffffffffff80821115611ef357600080fd5b611eff87838801611e27565b93506040860135915080821115611f1557600080fd5b50611f2286828701611e27565b9150509250925092565b600181811c90821680611f4057607f821691505b602082108103611f6057634e487b7160e01b600052602260045260246000fd5b50919050565b6020808252602d908201527f4552433732313a2063616c6c6572206973206e6f7420746f6b656e206f776e6560408201526c1c881bdc88185c1c1c9bdd9959609a1b606082015260800190565b60208082526012908201527113919508191bd95cc81b9bdd08195e1a5cdd60721b604082015260600190565b60008351611ff1818460208801611b84565b835190830190612005818360208801611b84565b01949350505050565b601f82111561066157600081815260208120601f850160051c810160208610156120355750805b601f850160051c820191505b8181101561205457828155600101612041565b505050505050565b815167ffffffffffffffff81111561207657612076611d1f565b61208a816120848454611f2c565b8461200e565b602080601f8311600181146120bf57600084156120a75750858301515b600019600386901b1c1916600185901b178555612054565b600085815260208120601f198616915b828110156120ee578886015182559484019460019091019084016120cf565b508582101561210c5787850151600019600388901b60f8161c191681555b5050505050600190811b01905550565b60208082526024908201527f43616c6c6572206973206e6f7420746865206f776e6572206f72204e4654206f6040820152633bb732b960e11b606082015260800190565b60208082526025908201527f4552433732313a207472616e736665722066726f6d20696e636f72726563742060408201526437bbb732b960d91b606082015260800190565b60208082526032908201527f4552433732313a207472616e7366657220746f206e6f6e20455243373231526560408201527131b2b4bb32b91034b6b83632b6b2b73a32b960711b606082015260800190565b634e487b7160e01b600052603260045260246000fd5b634e487b7160e01b600052601160045260246000fd5b6000600182016122355761223561220d565b5060010190565b8181038181111561048d5761048d61220d565b634e487b7160e01b600052603160045260246000fd5b6001600160a01b038581168252841660208201526040810183905260806060820181905260009061229890830184611ba8565b9695505050505050565b6000602082840312156122b457600080fd5b81516114c981611b5156fea264697066735822122061cb5f507e93cdc4e281268438580af770d7a86b9d8e6a0959e0f49815a6850764736f6c63430008130033",
  "devdoc": {
    "events": {
      "Approval(address,address,uint256)": {
        "details": "Emitted when `owner` enables `approved` to manage the `tokenId` token."
      },
      "ApprovalForAll(address,address,bool)": {
        "details": "Emitted when `owner` enables or disables (`approved`) `operator` to manage all of its assets."
      },
      "Paused(address)": {
        "details": "Emitted when the pause is triggered by `account`."
      },
      "Transfer(address,address,uint256)": {
        "details": "Emitted when `tokenId` token is transferred from `from` to `to`."
      },
      "Unpaused(address)": {
        "details": "Emitted when the pause is lifted by `account`."
      }
    },
    "kind": "dev",
    "methods": {
      "approve(address,uint256)": {
        "details": "See {IERC721-approve}."
      },
      "balanceOf(address)": {
        "details": "See {IERC721-balanceOf}."
      },
      "getApproved(uint256)": {
        "details": "See {IERC721-getApproved}."
      },
      "isApprovedForAll(address,address)": {
        "details": "See {IERC721-isApprovedForAll}."
      },
      "name()": {
        "details": "See {IERC721Metadata-name}."
      },
      "owner()": {
        "details": "Returns the address of the current owner."
      },
      "ownerOf(uint256)": {
        "details": "See {IERC721-ownerOf}."
      },
      "paused()": {
        "details": "Returns true if the contract is paused, and false otherwise."
      },
      "renounceOwnership()": {
        "details": "Leaves the contract without owner. It will not be possible to call `onlyOwner` functions anymore. Can only be called by the current owner. NOTE: Renouncing ownership will leave the contract without an owner, thereby removing any functionality that is only available to the owner."
      },
      "safeTransferFrom(address,address,uint256)": {
        "details": "See {IERC721-safeTransferFrom}."
      },
      "safeTransferFrom(address,address,uint256,bytes)": {
        "details": "See {IERC721-safeTransferFrom}."
      },
      "setApprovalForAll(address,bool)": {
        "details": "See {IERC721-setApprovalForAll}."
      },
      "supportsInterface(bytes4)": {
        "details": "See {IERC165-supportsInterface}."
      },
      "symbol()": {
        "details": "See {IERC721Metadata-symbol}."
      },
      "tokenURI(uint256)": {
        "details": "See {IERC721Metadata-tokenURI}."
      },
      "transferFrom(address,address,uint256)": {
        "details": "See {IERC721-transferFrom}."
      },
      "transferOwnership(address)": {
        "details": "Transfers ownership of the contract to a new account (`newOwner`). Can only be called by the current owner."
      }
    },
    "version": 1
  },
  "userdoc": {
    "kind": "user",
    "methods": {},
    "version": 1
  },
  "storageLayout": {
    "storage": [
      {
        "astId": 246,
        "contract": "contracts/NFT.sol:NFT",
        "label": "_name",
        "offset": 0,
        "slot": "0",
        "type": "t_string_storage"
      },
      {
        "astId": 248,
        "contract": "contracts/NFT.sol:NFT",
        "label": "_symbol",
        "offset": 0,
        "slot": "1",
        "type": "t_string_storage"
      },
      {
        "astId": 252,
        "contract": "contracts/NFT.sol:NFT",
        "label": "_owners",
        "offset": 0,
        "slot": "2",
        "type": "t_mapping(t_uint256,t_address)"
      },
      {
        "astId": 256,
        "contract": "contracts/NFT.sol:NFT",
        "label": "_balances",
        "offset": 0,
        "slot": "3",
        "type": "t_mapping(t_address,t_uint256)"
      },
      {
        "astId": 260,
        "contract": "contracts/NFT.sol:NFT",
        "label": "_tokenApprovals",
        "offset": 0,
        "slot": "4",
        "type": "t_mapping(t_uint256,t_address)"
      },
      {
        "astId": 266,
        "contract": "contracts/NFT.sol:NFT",
        "label": "_operatorApprovals",
        "offset": 0,
        "slot": "5",
        "type": "t_mapping(t_address,t_mapping(t_address,t_bool))"
      },
      {
        "astId": 1294,
        "contract": "contracts/NFT.sol:NFT",
        "label": "_tokenURIs",
        "offset": 0,
        "slot": "6",
        "type": "t_mapping(t_uint256,t_string_storage)"
      },
      {
        "astId": 7,
        "contract": "contracts/NFT.sol:NFT",
        "label": "_owner",
        "offset": 0,
        "slot": "7",
        "type": "t_address"
      },
      {
        "astId": 130,
        "contract": "contracts/NFT.sol:NFT",
        "label": "_paused",
        "offset": 20,
        "slot": "7",
        "type": "t_bool"
      },
      {
        "astId": 2954,
        "contract": "contracts/NFT.sol:NFT",
        "label": "_tokenIdCounter",
        "offset": 0,
        "slot": "8",
        "type": "t_struct(Counter)1791_storage"
      },
      {
        "astId": 2964,
        "contract": "contracts/NFT.sol:NFT",
        "label": "nftData",
        "offset": 0,
        "slot": "9",
        "type": "t_mapping(t_uint256,t_struct(NFTData)2959_storage)"
      },
      {
        "astId": 2968,
        "contract": "contracts/NFT.sol:NFT",
        "label": "pausedTokens",
        "offset": 0,
        "slot": "10",
        "type": "t_mapping(t_uint256,t_bool)"
      },
      {
        "astId": 2973,
        "contract": "contracts/NFT.sol:NFT",
        "label": "tokensByAddress",
        "offset": 0,
        "slot": "11",
        "type": "t_mapping(t_address,t_array(t_uint256)dyn_storage)"
      },
      {
        "astId": 2976,
        "contract": "contracts/NFT.sol:NFT",
        "label": "onlyOwnerCanMint",
        "offset": 0,
        "slot": "12",
        "type": "t_bool"
      }
    ],
    "types": {
      "t_address": {
        "encoding": "inplace",
        "label": "address",
        "numberOfBytes": "20"
      },
      "t_array(t_uint256)dyn_storage": {
        "base": "t_uint256",
        "encoding": "dynamic_array",
        "label": "uint256[]",
        "numberOfBytes": "32"
      },
      "t_bool": {
        "encoding": "inplace",
        "label": "bool",
        "numberOfBytes": "1"
      },
      "t_mapping(t_address,t_array(t_uint256)dyn_storage)": {
        "encoding": "mapping",
        "key": "t_address",
        "label": "mapping(address => uint256[])",
        "numberOfBytes": "32",
        "value": "t_array(t_uint256)dyn_storage"
      },
      "t_mapping(t_address,t_bool)": {
        "encoding": "mapping",
        "key": "t_address",
        "label": "mapping(address => bool)",
        "numberOfBytes": "32",
        "value": "t_bool"
      },
      "t_mapping(t_address,t_mapping(t_address,t_bool))": {
        "encoding": "mapping",
        "key": "t_address",
        "label": "mapping(address => mapping(address => bool))",
        "numberOfBytes": "32",
        "value": "t_mapping(t_address,t_bool)"
      },
      "t_mapping(t_address,t_uint256)": {
        "encoding": "mapping",
        "key": "t_address",
        "label": "mapping(address => uint256)",
        "numberOfBytes": "32",
        "value": "t_uint256"
      },
      "t_mapping(t_uint256,t_address)": {
        "encoding": "mapping",
        "key": "t_uint256",
        "label": "mapping(uint256 => address)",
        "numberOfBytes": "32",
        "value": "t_address"
      },
      "t_mapping(t_uint256,t_bool)": {
        "encoding": "mapping",
        "key": "t_uint256",
        "label": "mapping(uint256 => bool)",
        "numberOfBytes": "32",
        "value": "t_bool"
      },
      "t_mapping(t_uint256,t_string_storage)": {
        "encoding": "mapping",
        "key": "t_uint256",
        "label": "mapping(uint256 => string)",
        "numberOfBytes": "32",
        "value": "t_string_storage"
      },
      "t_mapping(t_uint256,t_struct(NFTData)2959_storage)": {
        "encoding": "mapping",
        "key": "t_uint256",
        "label": "mapping(uint256 => struct NFT.NFTData)",
        "numberOfBytes": "32",
        "value": "t_struct(NFTData)2959_storage"
      },
      "t_string_storage": {
        "encoding": "bytes",
        "label": "string",
        "numberOfBytes": "32"
      },
      "t_struct(Counter)1791_storage": {
        "encoding": "inplace",
        "label": "struct Counters.Counter",
        "members": [
          {
            "astId": 1790,
            "contract": "contracts/NFT.sol:NFT",
            "label": "_value",
            "offset": 0,
            "slot": "0",
            "type": "t_uint256"
          }
        ],
        "numberOfBytes": "32"
      },
      "t_struct(NFTData)2959_storage": {
        "encoding": "inplace",
        "label": "struct NFT.NFTData",
        "members": [
          {
            "astId": 2956,
            "contract": "contracts/NFT.sol:NFT",
            "label": "status",
            "offset": 0,
            "slot": "0",
            "type": "t_string_storage"
          },
          {
            "astId": 2958,
            "contract": "contracts/NFT.sol:NFT",
            "label": "locked",
            "offset": 0,
            "slot": "1",
            "type": "t_bool"
          }
        ],
        "numberOfBytes": "64"
      },
      "t_uint256": {
        "encoding": "inplace",
        "label": "uint256",
        "numberOfBytes": "32"
      }
    }
  }
}